{
    "contractName": "Inheritance",
    "abi": [
        {
            "constant": false,
            "inputs": [
                {
                    "internalType": "address",
                    "name": "_beneficiary",
                    "type": "address"
                }
            ],
            "name": "setBeneficiary",
            "outputs": [],
            "payable": false,
            "stateMutability": "nonpayable",
            "type": "function"
        },
        {
            "constant": false,
            "inputs": [
                {
                    "internalType": "uint256",
                    "name": "amount",
                    "type": "uint256"
                }
            ],
            "name": "withdraw",
            "outputs": [],
            "payable": true,
            "stateMutability": "payable",
            "type": "function"
        },
        {
            "constant": false,
            "inputs": [
                {
                    "internalType": "uint256",
                    "name": "lengthInWeeks",
                    "type": "uint256"
                }
            ],
            "name": "setTimeline",
            "outputs": [],
            "payable": false,
            "stateMutability": "nonpayable",
            "type": "function"
        },
        {
            "constant": false,
            "inputs": [],
            "name": "startInheritance",
            "outputs": [],
            "payable": false,
            "stateMutability": "nonpayable",
            "type": "function"
        },
        {
            "constant": false,
            "inputs": [],
            "name": "addFunds",
            "outputs": [],
            "payable": true,
            "stateMutability": "payable",
            "type": "function"
        },
        {
            "constant": true,
            "inputs": [],
            "name": "balanceOfContract",
            "outputs": [
                {
                    "internalType": "uint256",
                    "name": "",
                    "type": "uint256"
                }
            ],
            "payable": false,
            "stateMutability": "view",
            "type": "function"
        },
        {
            "inputs": [],
            "payable": true,
            "stateMutability": "payable",
            "type": "constructor"
        }
    ],
    "bytecode": "60806040526005805460ff19169055600180546001600160a01b03191633179055346004556105b6806100336000396000f3fe6080604052600436106100555760003560e01c80631c31f7101461005a5780632e1a7d4d1461008f5780632eb40f70146100ac578063690db665146100d6578063a26759cb146100eb578063e6c7c456146100f3575b600080fd5b34801561006657600080fd5b5061008d6004803603602081101561007d57600080fd5b50356001600160a01b031661011a565b005b61008d600480360360208110156100a557600080fd5b5035610185565b3480156100b857600080fd5b5061008d600480360360208110156100cf57600080fd5b503561023f565b3480156100e257600080fd5b5061008d610249565b61008d6102a9565b3480156100ff57600080fd5b5061010861033e565b60408051918252519081900360200190f35b6001546001600160a01b031633146101635760405162461bcd60e51b815260040180806020018281038252602881526020018061050b6028913960400191505060405180910390fd5b600380546001600160a01b0319166001600160a01b0392909216919091179055565b6003546001600160a01b031633146101ce5760405162461bcd60e51b815260040180806020018281038252602c815260200180610533602c913960400191505060405180910390fd5b600754811061020e5760405162461bcd60e51b81526004018080602001828103825260328152602001806104d96032913960400191505060405180910390fd5b604051339082156108fc029083906000818181858888f1935050505015801561023b573d6000803e3d6000fd5b5050565b62093a8002600255565b6001546001600160a01b031633146102925760405162461bcd60e51b815260040180806020018281038252602881526020018061050b6028913960400191505060405180910390fd5b6005805460ff191660011790556102a76103da565b565b6001546001600160a01b031633146102f25760405162461bcd60e51b815260040180806020018281038252602881526020018061050b6028913960400191505060405180910390fd5b60055460ff16156103345760405162461bcd60e51b815260040180806020018281038252602381526020018061055f6023913960400191505060405180910390fd5b6004805434019055565b6001546000906001600160a01b0316331461038a5760405162461bcd60e51b815260040180806020018281038252602881526020018061050b6028913960400191505060405180910390fd5b6003546001600160a01b031633146103d35760405162461bcd60e51b815260040180806020018281038252602c815260200180610533602c913960400191505060405180910390fd5b5060045490565b6103e86004546002546103ed565b600655565b600061042f83836040518060400160405280601a81526020017f536166654d6174683a206469766973696f6e206279207a65726f000000000000815250610436565b9392505050565b600081836104c25760405162461bcd60e51b81526004018080602001828103825283818151815260200191508051906020019080838360005b8381101561048757818101518382015260200161046f565b50505050905090810190601f1680156104b45780820380516001836020036101000a031916815260200191505b509250505060405180910390fd5b5060008385816104ce57fe5b049594505050505056fe54686572652069736e277420656e6f75676820457468657220617661696c61626c6520746f2077697468647261772079657453656e646572206973206e6f7420746865206f776e6572206f66207468697320636f6e747261637453656e646572206973206e6f7420612062656e6566696369617279206f66207468697320636f6e747261637454686520696e6865726974616e63652068617320616c72656164792073746172746564a265627a7a723158206c437fa73a5260a2f265fb7b45b093ff34384ad07b349fc7cb13acadc073a37864736f6c634300050b0032",
    "sourcePath": "c:/Users/Christian/Documents/Solidity/Inheritance_Project/contracts/Inheritance.sol",
    "compiler": {
        "name": "solc",
        "version": "0.5.11+commit.c082d0b4"
    },
    "functionHashes": {
        "addFunds()": "a26759cb",
        "balanceOfContract()": "e6c7c456",
        "setBeneficiary(address)": "1c31f710",
        "setTimeline(uint256)": "2eb40f70",
        "startInheritance()": "690db665",
        "withdraw(uint256)": "2e1a7d4d"
    },
    "gasEstimates": {
        "creation": {
            "codeDepositCost": "292400",
            "executionCost": "60765",
            "totalCost": "353165"
        },
        "external": {
            "addFunds()": "infinite",
            "balanceOfContract()": "infinite",
            "setBeneficiary(address)": "infinite",
            "setTimeline(uint256)": "20219",
            "startInheritance()": "infinite",
            "withdraw(uint256)": "infinite"
        },
        "internal": {
            "calculateWeeklyPayout()": "infinite"
        }
    }
}